{
  "contractName": "Zazzle",
  "abi": [
    {
      "inputs": [
        {
          "internalType": "uint256",
          "name": "_supply",
          "type": "uint256"
        }
      ],
      "stateMutability": "nonpayable",
      "type": "constructor"
    },
    {
      "anonymous": false,
      "inputs": [
        {
          "indexed": true,
          "internalType": "address",
          "name": "owner",
          "type": "address"
        },
        {
          "indexed": true,
          "internalType": "address",
          "name": "spender",
          "type": "address"
        },
        {
          "indexed": false,
          "internalType": "uint256",
          "name": "value",
          "type": "uint256"
        }
      ],
      "name": "Approval",
      "type": "event"
    },
    {
      "anonymous": false,
      "inputs": [
        {
          "indexed": true,
          "internalType": "address",
          "name": "from",
          "type": "address"
        },
        {
          "indexed": true,
          "internalType": "address",
          "name": "to",
          "type": "address"
        },
        {
          "indexed": false,
          "internalType": "uint256",
          "name": "value",
          "type": "uint256"
        }
      ],
      "name": "Transfer",
      "type": "event"
    },
    {
      "inputs": [
        {
          "internalType": "address",
          "name": "owner",
          "type": "address"
        },
        {
          "internalType": "address",
          "name": "spender",
          "type": "address"
        }
      ],
      "name": "allowance",
      "outputs": [
        {
          "internalType": "uint256",
          "name": "",
          "type": "uint256"
        }
      ],
      "stateMutability": "view",
      "type": "function",
      "constant": true
    },
    {
      "inputs": [
        {
          "internalType": "address",
          "name": "spender",
          "type": "address"
        },
        {
          "internalType": "uint256",
          "name": "amount",
          "type": "uint256"
        }
      ],
      "name": "approve",
      "outputs": [
        {
          "internalType": "bool",
          "name": "",
          "type": "bool"
        }
      ],
      "stateMutability": "nonpayable",
      "type": "function"
    },
    {
      "inputs": [
        {
          "internalType": "address",
          "name": "account",
          "type": "address"
        }
      ],
      "name": "balanceOf",
      "outputs": [
        {
          "internalType": "uint256",
          "name": "",
          "type": "uint256"
        }
      ],
      "stateMutability": "view",
      "type": "function",
      "constant": true
    },
    {
      "inputs": [],
      "name": "data",
      "outputs": [
        {
          "internalType": "uint256",
          "name": "",
          "type": "uint256"
        }
      ],
      "stateMutability": "view",
      "type": "function",
      "constant": true
    },
    {
      "inputs": [],
      "name": "decimals",
      "outputs": [
        {
          "internalType": "uint8",
          "name": "",
          "type": "uint8"
        }
      ],
      "stateMutability": "view",
      "type": "function",
      "constant": true
    },
    {
      "inputs": [
        {
          "internalType": "address",
          "name": "spender",
          "type": "address"
        },
        {
          "internalType": "uint256",
          "name": "subtractedValue",
          "type": "uint256"
        }
      ],
      "name": "decreaseAllowance",
      "outputs": [
        {
          "internalType": "bool",
          "name": "",
          "type": "bool"
        }
      ],
      "stateMutability": "nonpayable",
      "type": "function"
    },
    {
      "inputs": [
        {
          "internalType": "address",
          "name": "spender",
          "type": "address"
        },
        {
          "internalType": "uint256",
          "name": "addedValue",
          "type": "uint256"
        }
      ],
      "name": "increaseAllowance",
      "outputs": [
        {
          "internalType": "bool",
          "name": "",
          "type": "bool"
        }
      ],
      "stateMutability": "nonpayable",
      "type": "function"
    },
    {
      "inputs": [],
      "name": "name",
      "outputs": [
        {
          "internalType": "string",
          "name": "",
          "type": "string"
        }
      ],
      "stateMutability": "view",
      "type": "function",
      "constant": true
    },
    {
      "inputs": [],
      "name": "symbol",
      "outputs": [
        {
          "internalType": "string",
          "name": "",
          "type": "string"
        }
      ],
      "stateMutability": "view",
      "type": "function",
      "constant": true
    },
    {
      "inputs": [],
      "name": "totalSupply",
      "outputs": [
        {
          "internalType": "uint256",
          "name": "",
          "type": "uint256"
        }
      ],
      "stateMutability": "view",
      "type": "function",
      "constant": true
    },
    {
      "inputs": [
        {
          "internalType": "address",
          "name": "to",
          "type": "address"
        },
        {
          "internalType": "uint256",
          "name": "amount",
          "type": "uint256"
        }
      ],
      "name": "transfer",
      "outputs": [
        {
          "internalType": "bool",
          "name": "",
          "type": "bool"
        }
      ],
      "stateMutability": "nonpayable",
      "type": "function"
    },
    {
      "inputs": [
        {
          "internalType": "address",
          "name": "from",
          "type": "address"
        },
        {
          "internalType": "address",
          "name": "to",
          "type": "address"
        },
        {
          "internalType": "uint256",
          "name": "amount",
          "type": "uint256"
        }
      ],
      "name": "transferFrom",
      "outputs": [
        {
          "internalType": "bool",
          "name": "",
          "type": "bool"
        }
      ],
      "stateMutability": "nonpayable",
      "type": "function"
    },
    {
      "inputs": [
        {
          "internalType": "uint256",
          "name": "_data",
          "type": "uint256"
        }
      ],
      "name": "setData",
      "outputs": [],
      "stateMutability": "nonpayable",
      "type": "function"
    }
  ],
  "bytecode": "0x60806040523480156200001157600080fd5b5060405162001a9238038062001a92833981810160405281019062000037919062000396565b6040518060400160405280600681526020017f5a617a7a6c6500000000000000000000000000000000000000000000000000008152506040518060400160405280600381526020017f5a5a4c00000000000000000000000000000000000000000000000000000000008152508160039080519060200190620000bb929190620002a6565b508060049080519060200190620000d4929190620002a6565b5050506200011333620000ec6200011a60201b60201c565b600a620000fa919062000558565b83620001079190620005a9565b6200012360201b60201c565b506200077d565b60006012905090565b600073ffffffffffffffffffffffffffffffffffffffff168273ffffffffffffffffffffffffffffffffffffffff16141562000196576040517f08c379a00000000000000000000000000000000000000000000000000000000081526004016200018d906200066b565b60405180910390fd5b620001aa600083836200029c60201b60201c565b8060026000828254620001be91906200068d565b92505081905550806000808473ffffffffffffffffffffffffffffffffffffffff1673ffffffffffffffffffffffffffffffffffffffff16815260200190815260200160002060008282546200021591906200068d565b925050819055508173ffffffffffffffffffffffffffffffffffffffff16600073ffffffffffffffffffffffffffffffffffffffff167fddf252ad1be2c89b69c2b068fc378daa952ba7f163c4a11628f55a4df523b3ef836040516200027c9190620006fb565b60405180910390a36200029860008383620002a160201b60201c565b5050565b505050565b505050565b828054620002b49062000747565b90600052602060002090601f016020900481019282620002d8576000855562000324565b82601f10620002f357805160ff191683800117855562000324565b8280016001018555821562000324579182015b828111156200032357825182559160200191906001019062000306565b5b50905062000333919062000337565b5090565b5b808211156200035257600081600090555060010162000338565b5090565b600080fd5b6000819050919050565b62000370816200035b565b81146200037c57600080fd5b50565b600081519050620003908162000365565b92915050565b600060208284031215620003af57620003ae62000356565b5b6000620003bf848285016200037f565b91505092915050565b7f4e487b7100000000000000000000000000000000000000000000000000000000600052601160045260246000fd5b60008160011c9050919050565b6000808291508390505b600185111562000456578086048111156200042e576200042d620003c8565b5b60018516156200043e5780820291505b80810290506200044e85620003f7565b94506200040e565b94509492505050565b60008262000471576001905062000544565b8162000481576000905062000544565b81600181146200049a5760028114620004a557620004db565b600191505062000544565b60ff841115620004ba57620004b9620003c8565b5b8360020a915084821115620004d457620004d3620003c8565b5b5062000544565b5060208310610133831016604e8410600b8410161715620005155782820a9050838111156200050f576200050e620003c8565b5b62000544565b62000524848484600162000404565b925090508184048111156200053e576200053d620003c8565b5b81810290505b9392505050565b600060ff82169050919050565b600062000565826200035b565b915062000572836200054b565b9250620005a17fffffffffffffffffffffffffffffffffffffffffffffffffffffffffffffffff84846200045f565b905092915050565b6000620005b6826200035b565b9150620005c3836200035b565b9250817fffffffffffffffffffffffffffffffffffffffffffffffffffffffffffffffff0483118215151615620005ff57620005fe620003c8565b5b828202905092915050565b600082825260208201905092915050565b7f45524332303a206d696e7420746f20746865207a65726f206164647265737300600082015250565b600062000653601f836200060a565b915062000660826200061b565b602082019050919050565b60006020820190508181036000830152620006868162000644565b9050919050565b60006200069a826200035b565b9150620006a7836200035b565b9250827fffffffffffffffffffffffffffffffffffffffffffffffffffffffffffffffff03821115620006df57620006de620003c8565b5b828201905092915050565b620006f5816200035b565b82525050565b6000602082019050620007126000830184620006ea565b92915050565b7f4e487b7100000000000000000000000000000000000000000000000000000000600052602260045260246000fd5b600060028204905060018216806200076057607f821691505b6020821081141562000777576200077662000718565b5b50919050565b611305806200078d6000396000f3fe608060405234801561001057600080fd5b50600436106100cf5760003560e01c80635b4b73a91161008c57806395d89b411161006657806395d89b4114610228578063a457c2d714610246578063a9059cbb14610276578063dd62ed3e146102a6576100cf565b80635b4b73a9146101be57806370a08231146101da57806373d4a13a1461020a576100cf565b806306fdde03146100d4578063095ea7b3146100f257806318160ddd1461012257806323b872dd14610140578063313ce56714610170578063395093511461018e575b600080fd5b6100dc6102d6565b6040516100e99190610b92565b60405180910390f35b61010c60048036038101906101079190610c4d565b610368565b6040516101199190610ca8565b60405180910390f35b61012a61038b565b6040516101379190610cd2565b60405180910390f35b61015a60048036038101906101559190610ced565b610395565b6040516101679190610ca8565b60405180910390f35b6101786103c4565b6040516101859190610d5c565b60405180910390f35b6101a860048036038101906101a39190610c4d565b6103cd565b6040516101b59190610ca8565b60405180910390f35b6101d860048036038101906101d39190610d77565b610404565b005b6101f460048036038101906101ef9190610da4565b61040e565b6040516102019190610cd2565b60405180910390f35b610212610456565b60405161021f9190610cd2565b60405180910390f35b61023061045c565b60405161023d9190610b92565b60405180910390f35b610260600480360381019061025b9190610c4d565b6104ee565b60405161026d9190610ca8565b60405180910390f35b610290600480360381019061028b9190610c4d565b610565565b60405161029d9190610ca8565b60405180910390f35b6102c060048036038101906102bb9190610dd1565b610588565b6040516102cd9190610cd2565b60405180910390f35b6060600380546102e590610e40565b80601f016020809104026020016040519081016040528092919081815260200182805461031190610e40565b801561035e5780601f106103335761010080835404028352916020019161035e565b820191906000526020600020905b81548152906001019060200180831161034157829003601f168201915b5050505050905090565b60008061037361060f565b9050610380818585610617565b600191505092915050565b6000600254905090565b6000806103a061060f565b90506103ad8582856107e2565b6103b885858561086e565b60019150509392505050565b60006012905090565b6000806103d861060f565b90506103f98185856103ea8589610588565b6103f49190610ea1565b610617565b600191505092915050565b8060058190555050565b60008060008373ffffffffffffffffffffffffffffffffffffffff1673ffffffffffffffffffffffffffffffffffffffff168152602001908152602001600020549050919050565b60055481565b60606004805461046b90610e40565b80601f016020809104026020016040519081016040528092919081815260200182805461049790610e40565b80156104e45780601f106104b9576101008083540402835291602001916104e4565b820191906000526020600020905b8154815290600101906020018083116104c757829003601f168201915b5050505050905090565b6000806104f961060f565b905060006105078286610588565b90508381101561054c576040517f08c379a000000000000000000000000000000000000000000000000000000000815260040161054390610f69565b60405180910390fd5b6105598286868403610617565b60019250505092915050565b60008061057061060f565b905061057d81858561086e565b600191505092915050565b6000600160008473ffffffffffffffffffffffffffffffffffffffff1673ffffffffffffffffffffffffffffffffffffffff16815260200190815260200160002060008373ffffffffffffffffffffffffffffffffffffffff1673ffffffffffffffffffffffffffffffffffffffff16815260200190815260200160002054905092915050565b600033905090565b600073ffffffffffffffffffffffffffffffffffffffff168373ffffffffffffffffffffffffffffffffffffffff161415610687576040517f08c379a000000000000000000000000000000000000000000000000000000000815260040161067e90610ffb565b60405180910390fd5b600073ffffffffffffffffffffffffffffffffffffffff168273ffffffffffffffffffffffffffffffffffffffff1614156106f7576040517f08c379a00000000000000000000000000000000000000000000000000000000081526004016106ee9061108d565b60405180910390fd5b80600160008573ffffffffffffffffffffffffffffffffffffffff1673ffffffffffffffffffffffffffffffffffffffff16815260200190815260200160002060008473ffffffffffffffffffffffffffffffffffffffff1673ffffffffffffffffffffffffffffffffffffffff168152602001908152602001600020819055508173ffffffffffffffffffffffffffffffffffffffff168373ffffffffffffffffffffffffffffffffffffffff167f8c5be1e5ebec7d5bd14f71427d1e84f3dd0314c0f7b2291e5b200ac8c7c3b925836040516107d59190610cd2565b60405180910390a3505050565b60006107ee8484610588565b90507fffffffffffffffffffffffffffffffffffffffffffffffffffffffffffffffff8114610868578181101561085a576040517f08c379a0000000000000000000000000000000000000000000000000000000008152600401610851906110f9565b60405180910390fd5b6108678484848403610617565b5b50505050565b600073ffffffffffffffffffffffffffffffffffffffff168373ffffffffffffffffffffffffffffffffffffffff1614156108de576040517f08c379a00000000000000000000000000000000000000000000000000000000081526004016108d59061118b565b60405180910390fd5b600073ffffffffffffffffffffffffffffffffffffffff168273ffffffffffffffffffffffffffffffffffffffff16141561094e576040517f08c379a00000000000000000000000000000000000000000000000000000000081526004016109459061121d565b60405180910390fd5b610959838383610aef565b60008060008573ffffffffffffffffffffffffffffffffffffffff1673ffffffffffffffffffffffffffffffffffffffff168152602001908152602001600020549050818110156109df576040517f08c379a00000000000000000000000000000000000000000000000000000000081526004016109d6906112af565b60405180910390fd5b8181036000808673ffffffffffffffffffffffffffffffffffffffff1673ffffffffffffffffffffffffffffffffffffffff16815260200190815260200160002081905550816000808573ffffffffffffffffffffffffffffffffffffffff1673ffffffffffffffffffffffffffffffffffffffff1681526020019081526020016000206000828254610a729190610ea1565b925050819055508273ffffffffffffffffffffffffffffffffffffffff168473ffffffffffffffffffffffffffffffffffffffff167fddf252ad1be2c89b69c2b068fc378daa952ba7f163c4a11628f55a4df523b3ef84604051610ad69190610cd2565b60405180910390a3610ae9848484610af4565b50505050565b505050565b505050565b600081519050919050565b600082825260208201905092915050565b60005b83811015610b33578082015181840152602081019050610b18565b83811115610b42576000848401525b50505050565b6000601f19601f8301169050919050565b6000610b6482610af9565b610b6e8185610b04565b9350610b7e818560208601610b15565b610b8781610b48565b840191505092915050565b60006020820190508181036000830152610bac8184610b59565b905092915050565b600080fd5b600073ffffffffffffffffffffffffffffffffffffffff82169050919050565b6000610be482610bb9565b9050919050565b610bf481610bd9565b8114610bff57600080fd5b50565b600081359050610c1181610beb565b92915050565b6000819050919050565b610c2a81610c17565b8114610c3557600080fd5b50565b600081359050610c4781610c21565b92915050565b60008060408385031215610c6457610c63610bb4565b5b6000610c7285828601610c02565b9250506020610c8385828601610c38565b9150509250929050565b60008115159050919050565b610ca281610c8d565b82525050565b6000602082019050610cbd6000830184610c99565b92915050565b610ccc81610c17565b82525050565b6000602082019050610ce76000830184610cc3565b92915050565b600080600060608486031215610d0657610d05610bb4565b5b6000610d1486828701610c02565b9350506020610d2586828701610c02565b9250506040610d3686828701610c38565b9150509250925092565b600060ff82169050919050565b610d5681610d40565b82525050565b6000602082019050610d716000830184610d4d565b92915050565b600060208284031215610d8d57610d8c610bb4565b5b6000610d9b84828501610c38565b91505092915050565b600060208284031215610dba57610db9610bb4565b5b6000610dc884828501610c02565b91505092915050565b60008060408385031215610de857610de7610bb4565b5b6000610df685828601610c02565b9250506020610e0785828601610c02565b9150509250929050565b7f4e487b7100000000000000000000000000000000000000000000000000000000600052602260045260246000fd5b60006002820490506001821680610e5857607f821691505b60208210811415610e6c57610e6b610e11565b5b50919050565b7f4e487b7100000000000000000000000000000000000000000000000000000000600052601160045260246000fd5b6000610eac82610c17565b9150610eb783610c17565b9250827fffffffffffffffffffffffffffffffffffffffffffffffffffffffffffffffff03821115610eec57610eeb610e72565b5b828201905092915050565b7f45524332303a2064656372656173656420616c6c6f77616e63652062656c6f7760008201527f207a65726f000000000000000000000000000000000000000000000000000000602082015250565b6000610f53602583610b04565b9150610f5e82610ef7565b604082019050919050565b60006020820190508181036000830152610f8281610f46565b9050919050565b7f45524332303a20617070726f76652066726f6d20746865207a65726f2061646460008201527f7265737300000000000000000000000000000000000000000000000000000000602082015250565b6000610fe5602483610b04565b9150610ff082610f89565b604082019050919050565b6000602082019050818103600083015261101481610fd8565b9050919050565b7f45524332303a20617070726f766520746f20746865207a65726f20616464726560008201527f7373000000000000000000000000000000000000000000000000000000000000602082015250565b6000611077602283610b04565b91506110828261101b565b604082019050919050565b600060208201905081810360008301526110a68161106a565b9050919050565b7f45524332303a20696e73756666696369656e7420616c6c6f77616e6365000000600082015250565b60006110e3601d83610b04565b91506110ee826110ad565b602082019050919050565b60006020820190508181036000830152611112816110d6565b9050919050565b7f45524332303a207472616e736665722066726f6d20746865207a65726f20616460008201527f6472657373000000000000000000000000000000000000000000000000000000602082015250565b6000611175602583610b04565b915061118082611119565b604082019050919050565b600060208201905081810360008301526111a481611168565b9050919050565b7f45524332303a207472616e7366657220746f20746865207a65726f206164647260008201527f6573730000000000000000000000000000000000000000000000000000000000602082015250565b6000611207602383610b04565b9150611212826111ab565b604082019050919050565b60006020820190508181036000830152611236816111fa565b9050919050565b7f45524332303a207472616e7366657220616d6f756e742065786365656473206260008201527f616c616e63650000000000000000000000000000000000000000000000000000602082015250565b6000611299602683610b04565b91506112a48261123d565b604082019050919050565b600060208201905081810360008301526112c88161128c565b905091905056fea2646970667358221220de4869c8fd33c637e51291bdfe7b4e8934af677704ce53ea00d5b1d8f68fa0b764736f6c634300080b0033",
  "immutableReferences": {},
  "source": "// SPDX-License-Identifier: MIT\r\npragma solidity >=0.4.22 <0.9.0;\r\nimport \"@openzeppelin/contracts/token/ERC20/ERC20.sol\";\r\n\r\ncontract Zazzle is ERC20{\r\n    constructor(uint256 _supply) ERC20(\"Zazzle\", \"ZZL\") {\r\n        _mint(msg.sender, _supply * (10 ** decimals( )));\r\n}\r\nuint public data; \r\nfunction setData(uint _data) external{\r\n    data = _data;\r\n}\r\n}",
  "sourcePath": "D:\\Workspace\\job\\AppAvengers\\cryptoWallet\\myERC20\\contracts\\Zazzle.sol",
  "compiler": {
    "name": "solc",
    "version": "0.8.11+commit.d7f03943.Emscripten.clang"
  },
  "schemaVersion": "3.4.4",
  "updatedAt": "2022-07-13T05:16:33.402Z",
  "networkType": "ethereum",
  "devdoc": {
    "kind": "dev",
    "methods": {
      "allowance(address,address)": {
        "details": "See {IERC20-allowance}."
      },
      "approve(address,uint256)": {
        "details": "See {IERC20-approve}. NOTE: If `amount` is the maximum `uint256`, the allowance is not updated on `transferFrom`. This is semantically equivalent to an infinite approval. Requirements: - `spender` cannot be the zero address."
      },
      "balanceOf(address)": {
        "details": "See {IERC20-balanceOf}."
      },
      "decimals()": {
        "details": "Returns the number of decimals used to get its user representation. For example, if `decimals` equals `2`, a balance of `505` tokens should be displayed to a user as `5.05` (`505 / 10 ** 2`). Tokens usually opt for a value of 18, imitating the relationship between Ether and Wei. This is the value {ERC20} uses, unless this function is overridden; NOTE: This information is only used for _display_ purposes: it in no way affects any of the arithmetic of the contract, including {IERC20-balanceOf} and {IERC20-transfer}."
      },
      "decreaseAllowance(address,uint256)": {
        "details": "Atomically decreases the allowance granted to `spender` by the caller. This is an alternative to {approve} that can be used as a mitigation for problems described in {IERC20-approve}. Emits an {Approval} event indicating the updated allowance. Requirements: - `spender` cannot be the zero address. - `spender` must have allowance for the caller of at least `subtractedValue`."
      },
      "increaseAllowance(address,uint256)": {
        "details": "Atomically increases the allowance granted to `spender` by the caller. This is an alternative to {approve} that can be used as a mitigation for problems described in {IERC20-approve}. Emits an {Approval} event indicating the updated allowance. Requirements: - `spender` cannot be the zero address."
      },
      "name()": {
        "details": "Returns the name of the token."
      },
      "symbol()": {
        "details": "Returns the symbol of the token, usually a shorter version of the name."
      },
      "totalSupply()": {
        "details": "See {IERC20-totalSupply}."
      },
      "transfer(address,uint256)": {
        "details": "See {IERC20-transfer}. Requirements: - `to` cannot be the zero address. - the caller must have a balance of at least `amount`."
      },
      "transferFrom(address,address,uint256)": {
        "details": "See {IERC20-transferFrom}. Emits an {Approval} event indicating the updated allowance. This is not required by the EIP. See the note at the beginning of {ERC20}. NOTE: Does not update the allowance if the current allowance is the maximum `uint256`. Requirements: - `from` and `to` cannot be the zero address. - `from` must have a balance of at least `amount`. - the caller must have allowance for ``from``'s tokens of at least `amount`."
      }
    },
    "version": 1
  },
  "userdoc": {
    "kind": "user",
    "methods": {},
    "version": 1
  }
}